{
  "contractName": "MedicalRecord",
  "abi": [
    {
      "inputs": [],
      "name": "recordCount",
      "outputs": [
        {
          "internalType": "uint256",
          "name": "",
          "type": "uint256"
        }
      ],
      "stateMutability": "view",
      "type": "function"
    },
    {
      "inputs": [
        {
          "internalType": "uint256",
          "name": "",
          "type": "uint256"
        }
      ],
      "name": "records",
      "outputs": [
        {
          "internalType": "uint256",
          "name": "id",
          "type": "uint256"
        },
        {
          "internalType": "string",
          "name": "patientName",
          "type": "string"
        },
        {
          "internalType": "uint256",
          "name": "age",
          "type": "uint256"
        },
        {
          "internalType": "string",
          "name": "diagnosis",
          "type": "string"
        },
        {
          "internalType": "string",
          "name": "treatment",
          "type": "string"
        }
      ],
      "stateMutability": "view",
      "type": "function"
    },
    {
      "inputs": [
        {
          "internalType": "string",
          "name": "_patientName",
          "type": "string"
        },
        {
          "internalType": "uint256",
          "name": "_age",
          "type": "uint256"
        },
        {
          "internalType": "string",
          "name": "_diagnosis",
          "type": "string"
        },
        {
          "internalType": "string",
          "name": "_treatment",
          "type": "string"
        }
      ],
      "name": "addRecord",
      "outputs": [],
      "stateMutability": "nonpayable",
      "type": "function"
    },
    {
      "inputs": [
        {
          "internalType": "uint256",
          "name": "_id",
          "type": "uint256"
        }
      ],
      "name": "getRecord",
      "outputs": [
        {
          "internalType": "uint256",
          "name": "",
          "type": "uint256"
        },
        {
          "internalType": "string",
          "name": "",
          "type": "string"
        },
        {
          "internalType": "uint256",
          "name": "",
          "type": "uint256"
        },
        {
          "internalType": "string",
          "name": "",
          "type": "string"
        },
        {
          "internalType": "string",
          "name": "",
          "type": "string"
        }
      ],
      "stateMutability": "view",
      "type": "function"
    }
  ],
  "bytecode": "0x608060405234801561001057600080fd5b50610afa806100206000396000f3fe608060405234801561001057600080fd5b506004361061004c5760003560e01c806303e9e60914610051578063344610671461008557806343a949b5146100b9578063900407bc146100d5575b600080fd5b61006b600480360381019061006691906107d7565b6100f3565b60405161007c959493929190610863565b60405180910390f35b61009f600480360381019061009a91906107d7565b610349565b6040516100b0959493929190610863565b60405180910390f35b6100d360048036038101906100ce919061072c565b610527565b005b6100dd610606565b6040516100ea9190610848565b60405180910390f35b6000606060006060806000808781548110610137577f4e487b7100000000000000000000000000000000000000000000000000000000600052603260045260246000fd5b90600052602060002090600502016040518060a00160405290816000820154815260200160018201805461016a90610994565b80601f016020809104026020016040519081016040528092919081815260200182805461019690610994565b80156101e35780601f106101b8576101008083540402835291602001916101e3565b820191906000526020600020905b8154815290600101906020018083116101c657829003601f168201915b505050505081526020016002820154815260200160038201805461020690610994565b80601f016020809104026020016040519081016040528092919081815260200182805461023290610994565b801561027f5780601f106102545761010080835404028352916020019161027f565b820191906000526020600020905b81548152906001019060200180831161026257829003601f168201915b5050505050815260200160048201805461029890610994565b80601f01602080910402602001604051908101604052809291908181526020018280546102c490610994565b80156103115780601f106102e657610100808354040283529160200191610311565b820191906000526020600020905b8154815290600101906020018083116102f457829003601f168201915b505050505081525050905080600001518160200151826040015183606001518460800151955095509550955095505091939590929450565b6000818154811061035957600080fd5b906000526020600020906005020160009150905080600001549080600101805461038290610994565b80601f01602080910402602001604051908101604052809291908181526020018280546103ae90610994565b80156103fb5780601f106103d0576101008083540402835291602001916103fb565b820191906000526020600020905b8154815290600101906020018083116103de57829003601f168201915b50505050509080600201549080600301805461041690610994565b80601f016020809104026020016040519081016040528092919081815260200182805461044290610994565b801561048f5780601f106104645761010080835404028352916020019161048f565b820191906000526020600020905b81548152906001019060200180831161047257829003601f168201915b5050505050908060040180546104a490610994565b80601f01602080910402602001604051908101604052809291908181526020018280546104d090610994565b801561051d5780601f106104f25761010080835404028352916020019161051d565b820191906000526020600020905b81548152906001019060200180831161050057829003601f168201915b5050505050905085565b60006040518060a0016040528060015481526020018681526020018581526020018481526020018381525090806001815401808255809150506001900390600052602060002090600502016000909190919091506000820151816000015560208201518160010190805190602001906105a192919061060c565b506040820151816002015560608201518160030190805190602001906105c892919061060c565b5060808201518160040190805190602001906105e592919061060c565b505050600160008154809291906105fb906109c6565b919050555050505050565b60015481565b82805461061890610994565b90600052602060002090601f01602090048101928261063a5760008555610681565b82601f1061065357805160ff1916838001178555610681565b82800160010185558215610681579182015b82811115610680578251825591602001919060010190610665565b5b50905061068e9190610692565b5090565b5b808211156106ab576000816000905550600101610693565b5090565b60006106c26106bd846108fc565b6108cb565b9050828152602081018484840111156106da57600080fd5b6106e5848285610952565b509392505050565b600082601f8301126106fe57600080fd5b813561070e8482602086016106af565b91505092915050565b60008135905061072681610aad565b92915050565b6000806000806080858703121561074257600080fd5b600085013567ffffffffffffffff81111561075c57600080fd5b610768878288016106ed565b945050602061077987828801610717565b935050604085013567ffffffffffffffff81111561079657600080fd5b6107a2878288016106ed565b925050606085013567ffffffffffffffff8111156107bf57600080fd5b6107cb878288016106ed565b91505092959194509250565b6000602082840312156107e957600080fd5b60006107f784828501610717565b91505092915050565b600061080b8261092c565b6108158185610937565b9350610825818560208601610961565b61082e81610a9c565b840191505092915050565b61084281610948565b82525050565b600060208201905061085d6000830184610839565b92915050565b600060a0820190506108786000830188610839565b818103602083015261088a8187610800565b90506108996040830186610839565b81810360608301526108ab8185610800565b905081810360808301526108bf8184610800565b90509695505050505050565b6000604051905081810181811067ffffffffffffffff821117156108f2576108f1610a6d565b5b8060405250919050565b600067ffffffffffffffff82111561091757610916610a6d565b5b601f19601f8301169050602081019050919050565b600081519050919050565b600082825260208201905092915050565b6000819050919050565b82818337600083830152505050565b60005b8381101561097f578082015181840152602081019050610964565b8381111561098e576000848401525b50505050565b600060028204905060018216806109ac57607f821691505b602082108114156109c0576109bf610a3e565b5b50919050565b60006109d182610948565b91507fffffffffffffffffffffffffffffffffffffffffffffffffffffffffffffffff821415610a0457610a03610a0f565b5b600182019050919050565b7f4e487b7100000000000000000000000000000000000000000000000000000000600052601160045260246000fd5b7f4e487b7100000000000000000000000000000000000000000000000000000000600052602260045260246000fd5b7f4e487b7100000000000000000000000000000000000000000000000000000000600052604160045260246000fd5b6000601f19601f8301169050919050565b610ab681610948565b8114610ac157600080fd5b5056fea2646970667358221220428829a5900f2b5c18ca0d898c497aebd2e8e942453d365058abf37c8052c15964736f6c63430008000033",
  "immutableReferences": {},
  "source": "// SPDX-License-Identifier: MIT\r\npragma solidity ^0.8.0;\r\n\r\ncontract MedicalRecord {\r\n    struct Record {\r\n        uint id;\r\n        string patientName;\r\n        uint age;\r\n        string diagnosis;\r\n        string treatment;\r\n    }\r\n\r\n    Record[] public records;\r\n    uint public recordCount;\r\n\r\n    function addRecord(string memory _patientName, uint _age, string memory _diagnosis, string memory _treatment) public {\r\n        records.push(Record(recordCount, _patientName, _age, _diagnosis, _treatment));\r\n        recordCount++;\r\n    }\r\n\r\n    function getRecord(uint _id) public view returns (uint, string memory, uint, string memory, string memory) {\r\n        Record memory record = records[_id];\r\n        return (record.id, record.patientName, record.age, record.diagnosis, record.treatment);\r\n    }\r\n}",
  "sourcePath": "C:\\Windows\\System32\\medicalblockchain\\contracts\\medicalrecord.sol",
  "compiler": {
    "name": "solc",
    "version": "0.8.0+commit.c7dfd78e.Emscripten.clang"
  },
  "schemaVersion": "3.4.16",
  "updatedAt": "2025-01-30T22:28:21.487Z",
  "devdoc": {
    "kind": "dev",
    "methods": {},
    "version": 1
  },
  "userdoc": {
    "kind": "user",
    "methods": {},
    "version": 1
  }
}