{
  "contractName": "MedicalRecord",
  "abi": [
    {
      "inputs": [],
      "name": "recordCount",
      "outputs": [
        {
          "internalType": "uint256",
          "name": "",
          "type": "uint256"
        }
      ],
      "stateMutability": "view",
      "type": "function",
      "constant": true
    },
    {
      "inputs": [
        {
          "internalType": "uint256",
          "name": "",
          "type": "uint256"
        }
      ],
      "name": "records",
      "outputs": [
        {
          "internalType": "uint256",
          "name": "id",
          "type": "uint256"
        },
        {
          "internalType": "string",
          "name": "patientName",
          "type": "string"
        },
        {
          "internalType": "uint256",
          "name": "age",
          "type": "uint256"
        },
        {
          "internalType": "string",
          "name": "diagnosis",
          "type": "string"
        },
        {
          "internalType": "string",
          "name": "treatment",
          "type": "string"
        }
      ],
      "stateMutability": "view",
      "type": "function",
      "constant": true
    },
    {
      "inputs": [
        {
          "internalType": "string",
          "name": "_patientName",
          "type": "string"
        },
        {
          "internalType": "uint256",
          "name": "_age",
          "type": "uint256"
        },
        {
          "internalType": "string",
          "name": "_diagnosis",
          "type": "string"
        },
        {
          "internalType": "string",
          "name": "_treatment",
          "type": "string"
        }
      ],
      "name": "addRecord",
      "outputs": [],
      "stateMutability": "nonpayable",
      "type": "function"
    },
    {
      "inputs": [
        {
          "internalType": "uint256",
          "name": "_id",
          "type": "uint256"
        }
      ],
      "name": "getRecord",
      "outputs": [
        {
          "internalType": "uint256",
          "name": "",
          "type": "uint256"
        },
        {
          "internalType": "string",
          "name": "",
          "type": "string"
        },
        {
          "internalType": "uint256",
          "name": "",
          "type": "uint256"
        },
        {
          "internalType": "string",
          "name": "",
          "type": "string"
        },
        {
          "internalType": "string",
          "name": "",
          "type": "string"
        }
      ],
      "stateMutability": "view",
      "type": "function",
      "constant": true
    }
  ],
  "bytecode": "0x608060405234801561001057600080fd5b506108e4806100206000396000f3fe608060405234801561001057600080fd5b506004361061004c5760003560e01c806303e9e60914610051578063344610671461007e57806343a949b514610091578063900407bc146100a6575b600080fd5b61006461005f366004610779565b6100bb565b6040516100759594939291906107e5565b60405180910390f35b61006461008c366004610779565b6102f4565b6100a461009f3660046106eb565b6104ce565b005b6100ae6105cb565b60405161007591906107dc565b60006060600060608060008087815481106100e657634e487b7160e01b600052603260045260246000fd5b90600052602060002090600502016040518060a00160405290816000820154815260200160018201805461011990610836565b80601f016020809104026020016040519081016040528092919081815260200182805461014590610836565b80156101925780601f1061016757610100808354040283529160200191610192565b820191906000526020600020905b81548152906001019060200180831161017557829003601f168201915b50505050508152602001600282015481526020016003820180546101b590610836565b80601f01602080910402602001604051908101604052809291908181526020018280546101e190610836565b801561022e5780601f106102035761010080835404028352916020019161022e565b820191906000526020600020905b81548152906001019060200180831161021157829003601f168201915b5050505050815260200160048201805461024790610836565b80601f016020809104026020016040519081016040528092919081815260200182805461027390610836565b80156102c05780601f10610295576101008083540402835291602001916102c0565b820191906000526020600020905b8154815290600101906020018083116102a357829003601f168201915b5050509190925250508151602083015160408401516060850151608090950151929c919b5099509297509550909350505050565b6000818154811061030457600080fd5b6000918252602090912060059091020180546001820180549193509061032990610836565b80601f016020809104026020016040519081016040528092919081815260200182805461035590610836565b80156103a25780601f10610377576101008083540402835291602001916103a2565b820191906000526020600020905b81548152906001019060200180831161038557829003601f168201915b5050505050908060020154908060030180546103bd90610836565b80601f01602080910402602001604051908101604052809291908181526020018280546103e990610836565b80156104365780601f1061040b57610100808354040283529160200191610436565b820191906000526020600020905b81548152906001019060200180831161041957829003601f168201915b50505050509080600401805461044b90610836565b80601f016020809104026020016040519081016040528092919081815260200182805461047790610836565b80156104c45780601f10610499576101008083540402835291602001916104c4565b820191906000526020600020905b8154815290600101906020018083116104a757829003601f168201915b5050505050905085565b6040805160a081018252600180548252602080830188815293830187905260608301869052608083018590526000805492830181558052825160059092027f290decd9548b62a8d60345a988386fc84ba6bc95484008f6362f93160ef3e5638101928355935180519394929361056b937f290decd9548b62a8d60345a988386fc84ba6bc95484008f6362f93160ef3e564019291909101906105d1565b5060408201516002820155606082015180516105919160038401916020909101906105d1565b50608082015180516105ad9160048401916020909101906105d1565b505060018054915060006105c083610871565b919050555050505050565b60015481565b8280546105dd90610836565b90600052602060002090601f0160209004810192826105ff5760008555610645565b82601f1061061857805160ff1916838001178555610645565b82800160010185558215610645579182015b8281111561064557825182559160200191906001019061062a565b50610651929150610655565b5090565b5b808211156106515760008155600101610656565b600082601f83011261067a578081fd5b813567ffffffffffffffff8082111561069557610695610898565b604051601f8301601f1916810160200182811182821017156106b9576106b9610898565b6040528281528483016020018610156106d0578384fd5b82602086016020830137918201602001929092529392505050565b60008060008060808587031215610700578384fd5b843567ffffffffffffffff80821115610717578586fd5b6107238883890161066a565b955060208701359450604087013591508082111561073f578384fd5b61074b8883890161066a565b93506060870135915080821115610760578283fd5b5061076d8782880161066a565b91505092959194509250565b60006020828403121561078a578081fd5b5035919050565b60008151808452815b818110156107b65760208185018101518683018201520161079a565b818111156107c75782602083870101525b50601f01601f19169290920160200192915050565b90815260200190565b600086825260a060208301526107fe60a0830187610791565b85604084015282810360608401526108168186610791565b9050828103608084015261082a8185610791565b98975050505050505050565b60028104600182168061084a57607f821691505b6020821081141561086b57634e487b7160e01b600052602260045260246000fd5b50919050565b600060001982141561089157634e487b7160e01b81526011600452602481fd5b5060010190565b634e487b7160e01b600052604160045260246000fdfea2646970667358221220fddeb9e1869d2f41ff03cfdc8bebaa45e876ba4fe5c8eea07c54c82d4284eea664736f6c63430008000033",
  "immutableReferences": {},
  "source": "// SPDX-License-Identifier: MIT\r\npragma solidity ^0.8.0;\r\n\r\ncontract MedicalRecord {\r\n    struct Record {\r\n        uint id;\r\n        string patientName;\r\n        uint age;\r\n        string diagnosis;\r\n        string treatment;\r\n    }\r\n\r\n    Record[] public records;\r\n    uint public recordCount;\r\n\r\n    function addRecord(string memory _patientName, uint _age, string memory _diagnosis, string memory _treatment) public {\r\n        records.push(Record(recordCount, _patientName, _age, _diagnosis, _treatment));\r\n        recordCount++;\r\n    }\r\n\r\n    function getRecord(uint _id) public view returns (uint, string memory, uint, string memory, string memory) {\r\n        Record memory record = records[_id];\r\n        return (record.id, record.patientName, record.age, record.diagnosis, record.treatment);\r\n    }\r\n}",
  "sourcePath": "C:\\Windows\\System32\\medicalblockchain\\contracts\\medicalrecord.sol",
  "compiler": {
    "name": "solc",
    "version": "0.8.0+commit.c7dfd78e.Emscripten.clang"
  },
  "schemaVersion": "3.4.16",
  "updatedAt": "2025-01-30T23:15:45.774Z",
  "networkType": "ethereum",
  "devdoc": {
    "kind": "dev",
    "methods": {},
    "version": 1
  },
  "userdoc": {
    "kind": "user",
    "methods": {},
    "version": 1
  }
}